:100000000C944E0B0C943B0E0C94660E0C94910EBB
:100010000C94BC0E0C94E70E0C94120F0C943D0F34
:100020000C94680F0C947F0B0C947F0B0C947F0B3B
:100030000C947F0B0C94835D0C947F0B0C947F0BC2
:100040000C947F0B0C945E440C947F0B0C947F0BF0
:100050000C947F0B0C947F0B0C94F0560C94810B3A
:100060000C947F0B0C945F2F0C947F0B0C947F0BE4
:100070000C947F0B0C947F0B0C947F0B0C947F0BD8
:100080000C947F0B0C947F0B0C947F0B0C947F0BC8
:100090000C947F0B0C947F0B0C947F0B0C947F0BB8
:1000A0000C947F0B0C947F0B0C947F0B0C947F0BA8
:1000B0000C947F0B0C947F0B0C947F0B0C947F0B98
:1000C0000C947F0B0C947F0B0C947F0B0C947F0B88
:1000D0000C947F0B0C947F0B0C947F0B0C947F0B78
:1000E0000C947F0BAF0CB40CB90CC30CCD0C460DAB
:1000F000D70CDF0CE70CF10CFB0C050D140D1E0DDD
:10010000460D280D320D3C0D6A0D6D0D5C0D600D18
:10011000660DA40D710D750D7B0D7F0D830D890D81
:100120008D0D910DA40D970D9B0D9F0D062B062B8C
:10013000112B112B112B1C2B1C2B1C2B312B272B88
:10014000272B272B3B574857645771578B578D5791
:100150008F5791579357955797579957A157084AD3
:10016000D73B3BCE016E84BCBFFDC12F3D6C7431CB
:100170009ABD56833DDA3D00C77F11BED9E4BB4C22
:100180003E916BAAAABE000000803F05A84CCDB2EC
:10019000D44EB93836A9020C50B9918688083CA6CD
:1001A000AAAA2ABE000000803F000C9497570C9426
:1001B0005B2F0C94CD0C0C948D570C94DF0C0C948D
:1001C000660D0C941C2B0C94710D0C94280D0C9442
:1001D00099570C94E70C0C94460D0C948B570C9487
:1001E00091570C943B570C94600D0C9493570C94BE
:1001F000140D0C943A0E0C9464570C949B0D0C94B3
:10020000970D0C943C0D0C94A1570C94B40C0C94C9
:10021000FB0C0C947B0D0C948F570C94320D0C94AA
:10022000062B0C946A0D0C94C30C0C94050D0C94C5
:10023000830D0C94910D0C94312B0C946D0D0C943A
:10024000B90C0C94750D0C94AF0C0C947F0D0C94A0
:100250009F0D0C9471570C94D70C0C9448570C9428
:10026000112B0C94F10C0C9495570C94A40D0C9438
:100270008D0D0C941E0D0C945C0D0C94890D0C943A
:10028000272B00000A0B02090C0D0E0807030401BE
:10029000000000000000000000000000000000005E
:1002A000000000000000000000000000000012112B
:1002B000100000000000000000000000000000002E
:1002C00000000000000000000102102020080810BB
:1002D00020401020408002010201080402010102B6
:1002E000040810204080804020100804020180048F
:1002F00002018040201008040201080402010102EA
:1003000004081020408001020408102040800505E8
:100310000505070508080808020202020A0A08087B
:1003200004040404010101010101010103030303A9
:1003300003030303040707070C0C0C0C0C0C0C0C38
:100340000202020206060606060606060B0B0B0B49
:100350000B0B0B0B000020002300260029002C00B3
:100360002F00320000010000030106010901000016
:100370002200250028002B002E003100340002014D
:100380000000050108010B010000210024002700E6
:100390002A002D0030003300010100000401070194
:1003A0000A015072696E7465722068616C746564CC
:1003B0002E206B696C6C28292063616C6C6564214C
:1003C000004B494C4C45442E200020746F6F206C2C
:1003D0006F6E6720657874727573696F6E207072C6
:1003E0006576656E7465640020636F6C6420657863
:1003F00074727573696F6E2070726576656E746560
:1004000064006F6B00526573656E643A2000546F30
:100410006F206661722066726F6D2072656665720C
:10042000656E636520706F696E74005365747469DE
:100430006E672054726176656C20416363656C65FC
:10044000726174696F6E3A200053657474696E67E7
:10045000205265747261637420416363656C6572D8
:100460006174696F6E3A200053657474696E672019
:100470005072696E7420416363656C657261746962
:100480006F6E3A200053657474696E67205072690C
:100490006E7420616E642054726176656C204163D5
:1004A00063656C65726174696F6E3A20007A5F6D86
:1004B000696E3A2000795F6D696E3A2000785F6D51
:1004C000696E3A2000205A3A0020593A0020436FC2
:1004D000756E7420583A200020453A00205A3A00A0
:1004E00020593A00583A004649524D574152455F0B
:1004F0004E414D453A4D61726C696E20312E312E60
:10050000302D52433620284769746875622920537C
:100510004F555243455F434F44455F55524C3A68EF
:10052000747470733A2F2F6769746875622E636FE5
:100530006D2F556C74696D616B65722F4D61726CB6
:10054000696E2050524F544F434F4C5F56455253A3
:10055000494F4E3A312E30204D414348494E455F78
:10056000545950453A556C74696D616B65722045FC
:10057000585452554445525F434F554E543A3120DA
:10058000555549443A63656465326132662D3431AC
:1005900061322D343734382D396231322D6335359F
:1005A0006336326633363766660A003F0020573AB4
:1005B000003F0020573A006F6B004D31313320531C
:1005C000004B494C4C45442E20004543484F0049C0
:1005D0004E464F004552524F5253004452595255C5
:1005E0004E00434F4D4D554E49434154494F4E00E7
:1005F0006F666600CA05CF05D405DB05E2054445F4
:100600004255473A002569206D696E2C20256920E6
:10061000736563005761726E696E673A20486F6D4B
:10062000696E672042756D702044697669736F72D8
:10063000203C20310020403A002042403A00202F48
:100640000020423A00202F0020543A00627573794E
:100650003A2070617573656420666F7220696E70F0
:10066000757400627573793A2070617573656420E2
:10067000666F72207573657200627573793A2070C7
:10068000726F63657373696E6700220A00556E6B43
:100690006E6F776E20636F6D6D616E643A2022001D
:1006A00020496E76616C6964206578747275646542
:1006B0007220004B494C4C45442E20005072696E0C
:1006C0007465722073746F70706564206475652042
:1006D000746F206572726F72732E20466978207471
:1006E0006865206572726F7220616E642075736533
:1006F000204D39393920746F2072657374617274BA
:100700002E202854656D706572617475726520695C
:10071000732072657365742E20536574206974208C
:1007200061667465722072657374617274696E6754
:1007300029004E6F204C696E65204E756D626572A2
:10074000207769746820636865636B73756D2C200E
:100750004C617374204C696E653A20004E6F2043E3
:100760006865636B73756D2077697468206C696E5A
:1007700065206E756D6265722C204C617374204C1F
:10078000696E653A2000636865636B73756D206DF3
:1007900069736D617463682C204C617374204C69BB
:1007A0006E653A20004C696E65204E756D6265720B
:1007B000206973206E6F74204C617374204C696ED5
:1007C00065204E756D6265722B312C204C617374FF
:1007D000204C696E653A20004D31313000202050A8
:1007E0006C616E6E6572427566666572427974659B
:1007F000733A20002046726565204D656D6F7279F1
:100800003A200053657020313320323031370043B5
:100810006F6D70696C65643A2000286E6F6E652C90
:100820002064656661756C7420636F6E6669672904
:1008300000207C20417574686F723A20003230319C
:10084000362D30342D32342031323A303000204CC5
:1008500061737420557064617465643A20002031BE
:100860002E312E302D524336004D61726C696E0070
:1008700020536F66747761726520526573657400EA
:10088000205761746368646F6720526573657400F4
:100890002042726F776E206F757420526573657495
:1008A000002045787465726E616C205265736574C2
:1008B00000506F7765725570007374617274002216
:1008C00000656E7175657565696E67202200FFFFB2
:1008D000FF0000A0400000A0400000004000004DCC
:1008E0004300004D430000484300000000000000AA
:1008F000000000000000004D4300004D4300004890
:100900004300000000000000000000000065636874
:100910006F3A004572726F723A0020746F6F206CEC
:100920006F6E6720657874727573696F6E20707270
:100930006576656E7465640020636F6C642065780D
:1009400074727573696F6E2070726576656E74650A
:100950006400205A3A0020593A0020583A00656E47
:100960006473746F7073206869743A200024F4D43F
:100970003050C38E20C2A24017828B7011127A9120
:100980000D816CD90AA861E108C758660761514317
:10099000061E4B5D05C145A7041A411104093D9887
:1009A00003713931034036DB0265339102D4305490
:1009B00002802E1D02632CEE01752AC501B028A00D
:1009C00001102781018F2564012B244B01E0223483
:1009D00001AC211F018D200D01801FFC00841EED44
:1009E00000971DDF00B81CD200E61BC600201BBC10
:1009F00000641AB200B219A8000A19A0006A189976
:100A000000D117910040178B00B516840031167E77
:100A100000B31579003A157300C7146F0058146AB3
:100A200000EE1366008813630025135E00C7125B97
:100A3000006C12570015125400C111510070114F73
:100A40000021114B00D61049008D1047004610447C
:100A50000002104200C00F4000800F3E00420F3CD9
:100A600000060F3B00CB0E3800930E37005C0E35AE
:100A700000270E3400F30D3200C10D3100900D300F
:100A800000600D2E00320D2D00050D2C00D90C2B11
:100A900000AE0C2900850C29005C0C2700350C27C2
:100AA000000E0C2600E80B2400C40B2400A00B232E
:100AB000007D0B23005A0B2100390B2100180B205D
:100AC00000F80A1F00D90A1E00BB0A1E009D0A1D5D
:100AD00000800A1D00630A1C00470A1B002C0A1B29
:100AE00000110A1A00F7091A00DD091900C40919D2
:100AF00000AB091900920917007B09180063091758
:100B0000004C09160036091600200916000A0915BE
:100B100000F5081500E0081400CC081400B808140B
:100B200000A4081400900813007D0812006B08133D
:100B3000005808120046081200340811002308115A
:100B4000001208110001081100F0071000E0071062
:100B500000D0071000C0071000B0070F00A1071059
:100B60000091070E0083070F0074070F0065070E42
:100B70000057070E0049070E003B070D002E070E19
:100B80000020070D0013070D0006070D00F9060CE5
:100B900000ED060D00E0060C00D4060C00C8060CA3
:100BA00000BC060C00B0060C00A4060B0099060C55
:100BB000008D060B0082060B0077060B006C060BFF
:100BC0000061060A0057060B004C060A0042060A9E
:100BD0000038060A002E060A0024060A001A060A31
:100BE000001006090007060A00FD050900F40509C2
:100BF00000EB050900E2050900D9050900D0050947
:100C000000C7050900BE050900B5050800AD0508C7
:100C100000A50509009C050800940508008C05083E
:100C200000840508007C050800740508006C0507B1
:100C300000650508005D050700560508004E05071C
:100C40000047050700400508003805070031050783
:100C5000002A050700230507001C050600160507E6
:100C6000000F0507000805060002050700FB040643
:100C700000F5040700EE040600E8040600E204079D
:100C800000DB040600D5040600CF040600C90406F4
:100C900000C3040600BD040600B7040600B1040545
:100CA00000AC040600A6040600A00405009B040690
:100CB0000095040500900406008A040500850405DB
:100CC00000800406007A0405007504050070040520
:100CD000006B04050066040500610405005C040562
:100CE0000057040500520405004D040500480405A2
:100CF00000430405003E0404003A040500350405E1
:100D000000300404002C040500270404002304051B
:100D1000001E0404001A0404001604050011040453
:100D2000000D040400090405000404040000040488
:100D300000FC030400F8030400F4030400F00304BF
:100D400000EC030400E8030400E4030400E00304EF
:100D500000DC030400D8030400D4030400D003041F
:100D600000CC030400C8030300C503030024F404FB
:100D7000D9201BC40C5C0E9804C4095F026507717E
:100D800001F405F900FB04B30048048700C10369BE
:100D9000005803550003034500BE023A00840231A7
:100DA0000053022A002902250004022000E4011C4D
:100DB00000C8011900AF0117009801140084011345
:100DC00000710110006101100051010E0043010D7E
:100DD0000036010B002B010B0020010B001501094F
:100DE000000C01090003010800FB000800F30008E3
:100DF00000EB000700E4000600DE000600D8000655
:100E000000D2000600CC000500C7000500C20005A6
:100E100000BD000400B9000400B5000400B10004E6
:100E200000AD000400A9000400A5000300A2000317
:100E3000009F0004009B000300980003009500023F
:100E40000093000300900003008D0002008B00035C
:100E50000088000200860002008400030081000276
:100E6000007F0002007D0002007B0002007900028A
:100E70000077000100760002007400020072000199
:100E800000710002006F0002006D0001006C0002A2
:100E9000006A0001006900020067000100660001AD
:100EA00000650001006400020062000100610001B1
:100EB00000600001005F0002005D0001005C0001B5
:100EC000005B0001005A00010059000100580001B8
:100ED00000570001005600010055000100540001B8
:100EE00000530000005300010052000100510001B6
:100EF00000500001004F0001004E0000004E0001B4
:100F0000004D0001004C0001004B0000004B0001AF
:100F1000004A0001004900010048000000480001AB
:100F200000470001004600000046000100450000A7
:100F3000004500010044000100430000004300019F
:100F40000042000000420001004100000041000199
:100F500000400001003F0000003F0001003E000093
:100F6000003E0001003D0000003D0001003C00008B
:100F7000003C0000003C0001003B0000003B000181
:100F8000003A0000003A0001003900000039000179
:100F90000038000000380000003800010037000071
:100FA0000037000100360000003600000036000166
:100FB000003500000035000000350001003400005D
:100FC0000034000000340001003300000033000052
:100FD0000033000100320000003200000032000146
:100FE000003100000031000000310001003000003D
:100FF0000030000000300001002F0000002F000032
:10100000002F0000002F0001002E0000002E000025
:10101000002E0001002D0000002D0000002D00001A
:10102000002D0001002C0000002C0000002C00000E
:10103000002C0001002B0000002B0000002B000002
:10104000002B0001002A0000002A0000002A0000F6
:10105000002A0001002900000029000000290000EA
:1010600000290000002900010028000000280000DD
:1010700000280000002800000028000100270000D0
:1010800000270000002700000027000000270001C3
:1010900000260000002600000026000000260000B8
:1010A00000260001002500000025000000250000AA
:1010B000002500000025000000250001002400009C
:1010C000002400000024000000240000002400018F
:1010D0000023000000230000002300000023000084
:1010E0000023000000230000002300010022000074
:1010F0000022000000220000002200000022000068
:101100000022000100210000002100000021000059
:10111000002100000021000000210000002100014A
:10112000002000000020000000200000002000003F
:10113000002000000020000000200000002000012E
:10114000001F0000001F0000001F0000001F000023
:10115000001F0000001F0000001F0001001E000013
:10116000001E0000001E0000001E0000004D494E41
:1011700054454D5020747269676765726564004517
:1011800072723A204D494E54454D5020424544001C
:101190004D415854454D50207472696767657265BA
:1011A00064004572723A204D415854454D502042DA
:1011B000454400546865726D616C2052756E6177AC
:1011C000617900544845524D414C2052554E41578B
:1011D00041590048656174696E67206661696C6594
:1011E000640048656174696E67206661696C656456
:1011F000004D494E54454D502074726967676572C1
:101200006564004572723A204D494E54454D500078
:10121000626564002C2073797374656D2073746F3C
:101220007070656421204865617465725F49443A55
:1012300020004D415854454D5020747269676765D0
:10124000726564004572723A204D415854454D50C4
:101250000023646566696E65202044454641554C0F
:10126000545F4B64200023646566696E65202044EA
:10127000454641554C545F4B6920002364656669BF
:101280006E65202044454641554C545F4B7020000C
:10129000504944204175746F74756E652066696E9F
:1012A0006973686564212050757420746865206CCA
:1012B000617374204B702C204B6920616E64204B4D
:1012C0006420636F6E7374616E74732066726F6DE9
:1012D0002062656C6F7720696E746F20436F6E6655
:1012E000696775726174696F6E2E68005049442099
:1012F0004175746F74756E65206661696C656421F3
:101300002074696D656F757400504944204175748F
:101310006F74756E65206661696C65642120546523
:101320006D706572617475726520746F6F20686985
:10133000676800204B643A2000204B693A20002067
:101340004B703A200020436C6173736963205049ED
:101350004420002054753A2000204B753A2000208C
:101360006D61783A2000206D696E3A200020643A61
:10137000200020626961733A200000000000300EF6
:101380000100C00E0A00500F1400D00F1E006010A4
:101390002800E010320070113C00F011460070127D
:1013A000500000135A008013640000146E00901463
:1013B00078001015820090158C001016960090167B
:1013C000A0001017AA009017B4001018BE009018C3
:1013D000C8001019D2009019DC00101AE600801A1B
:1013E000F000001BFA00801B0401F01B0E01701CB2
:1013F0001801F01C2201601D2C01E01D3601501E59
:101400004001D01E4A01401F5401B01F5E01302030
:101410006801A020720110217C0190218601002228
:1014200090016026F401902A5802802EBC025032AE
:101430002003E03584035039E803803C4C0420202D
:101440004D3230302044300020204D3230302044A6
:10145000002044697361626C65640046696C616D6B
:10146000656E742073657474696E67733A00204CFE
:101470000020430020440020490020204D3330311B
:101480002050005049442073657474696E67733A44
:1014900000205A0020590020204D323036205800BC
:1014A000486F6D65206F666673657420286D6D29C1
:1014B0003A00204500205A002058002042002054C5
:1014C0000020204D323035205300416476616E6338
:1014D0006564207661726961626C65733A20533D80
:1014E0004D696E20666565647261746520286D6D56
:1014F0002F73292C20543D4D696E207472617665DE
:101500006C20666565647261746520286D6D2F734B
:10151000292C20423D6D696E696D756D207365677C
:101520006D656E742074696D6520286D73292C209B
:10153000583D6D6178696D756D205859206A6572E6
:101540006B20286D6D2F73292C20205A3D6D6178FA
:10155000696D756D205A206A65726B20286D6D2F3C
:1015600073292C2020453D6D6178696D756D20458E
:10157000206A65726B20286D6D2F7329002054003E
:1015800020520020204D32303420500041636365EA
:101590006C65726174696F6E733A20503D70726948
:1015A0006E74696E672C20523D726574726163744B
:1015B00020616E6420543D74726176656C00204534
:1015C00000205A0020590020204D32303120580090
:1015D0004D6178696D756D20416363656C657261FD
:1015E00074696F6E20286D6D2F7332293A00204583
:1015F00000205A0020590020204D3230332058005E
:101600004D6178696D756D2066656564726174659C
:101610007320286D6D2F73293A00204500205A0051
:1016200020590020204D39322058005374657073C2
:101630002070657220756E69743A00486172646347
:101640006F6465642044656661756C7420536574CD
:1016500074696E6773204C6F6164656400024E416B
:101660004E494E495459494E46CDCCCC3D0AD7231C
:101670003C17B7D13877CC2B329595E6241FB14F64
:101680000A000020410000C84200401C4620BCBEA9
:101690004CCA1B0E5AAEC59D74005B2F11241FBE91
:1016A000CFEFD1E2DEBFCDBF00E00CBF13E0A0E082
:1016B000B2E0E4E9F3ED00E00BBF02C007900D9249
:1016C000A439B107D9F72DE0A4E9B3E001C01D9218
:1016D000AB3AB207E1F71BE0CEE4DBE000E006C086
:1016E00021970109802FFE010E94AA63CD34D10702
:1016F00080E00807A9F70E945D5E0C94C8690C940D
:1017000000001F920F920FB60F9211242F933F9358
:101710008F939F93AF93BF9380919503909196037E
:10172000A0919703B09198033091940323E0230F85
:101730002D3720F40196A11DB11D05C026E8230F09
:101740000296A11DB11D209394038093950390935D
:101750009603A0939703B093980380919903909177
:101760009A03A0919B03B0919C030196A11DB11D0A
:101770008093990390939A03A0939B03B0939C0347
:10178000BF91AF919F918F913F912F910F900FBE7D
:101790000F901F9018952FB7F89460919503709152
:1017A000960380919703909198032FBF08953FB7B8
:1017B000F8948091990390919A03A0919B03B09122
:1017C0009C0326B5A89B05C02F3F19F00196A11DCB
:1017D000B11D3FBFBA2FA92F982F8827820F911DC7
:1017E000A11DB11DBC01CD0142E0660F771F881F0E
:1017F000991F4A95D1F70895CF92DF92EF92FF9209
:10180000CF93DF936B017C010E94D70BEB01C114D6
:10181000D104E104F10489F00E94930F0E94D70BD8
:101820006C1B7D0B683E734090F381E0C81AD108B1
:10183000E108F108C851DC4FEACFDF91CF91FF906A
:10184000EF90DF90CF900895789484B5826084BD46
:1018500084B5816084BD85B5826085BD85B58160B4
:1018600085BDEEE6F0E0808181608083E1E8F0E014
:101870001082808182608083808181608083E0E843
:10188000F0E0808181608083E1EBF0E08081846022
:101890008083E0EBF0E0808181608083E1E9F0E02B
:1018A000808182608083808181608083E0E9F0E0D4
:1018B000808181608083E1EAF0E0808182608083C2
:1018C000808181608083E0EAF0E0808181608083B4
:1018D000E1E2F1E0808182608083808181608083A9
:1018E000E0E2F1E0808181608083EAE7F0E08081DE
:1018F0008460808380818260808380818160808336
:101900008081806880831092C10008951F93CF93D7
:10191000DF93182FEB0161E00E94A50D209711F4D1
:1019200060E004C0CF3FD10539F461E0812FDF9141
:10193000CF911F910C94E10DE12FF0E0EE57FD4F98
:10194000E4914E2F50E0FA013197E231F10508F0B1
:101950009DC08827EE58FF4F8F4F0C94AA6384B523
:10196000806884BDC7BD97C084B5806284BDC8BD92
:1019700092C080918000806880938000D09389001D
:10198000C093880088C0809180008062809380002E
:10199000D0938B00C0938A007EC0809180008860C5
:1019A00080938000D0938D00C0938C0074C0809190
:1019B000B00080688093B000C093B3006CC0809189
:1019C000B00080628093B000C093B40064C0809186
:1019D0009000806880939000D0939900C093980005
:1019E0005AC080919000806280939000D0939B00B9
:1019F000C0939A0050C080919000886080939000BE
:101A0000D0939D00C0939C0046C08091A000806848
:101A10008093A0008091A0008F7B8093A000D09342
:101A2000A900C093A80037C08091A0008062809375
:101A3000A000D093AB00C093AA002DC08091A0005D
:101A400088608093A000D093AD00C093AC0023C009
:101A500080912001806880932001D0932901C09358
:101A6000280119C080912001806280932001D093C9
:101A70002B01C0932A010FC08091200188608093C0
:101A80002001D0932D01C0932C0105C0C038D10591
:101A90000CF04BCF45CFDF91CF911F91089590E08F
:101AA000FC013197E231F10508F04EC08827EC5770
:101AB000FF4F8F4F0C94AA63809180008F7703C0F3
:101AC000809180008F7D80938000089580918000B8
:101AD000877FF9CF84B58F7702C084B58F7D84BDB1
:101AE00008958091B0008F7703C08091B0008F7D02
:101AF0008093B0000895809190008F7707C0809107
:101B000090008F7D03C080919000877F809390002C
:101B100008958091A0008F7707C08091A0008F7DED
:101B200003C08091A000877F8093A00008958091DA
:101B300020018F7707C0809120018F7D03C08091A5
:101B40002001877F809320010895CF93DF9390E059
:101B5000FC01E853FD4F2491FC01E25FFC4F8491AE
:101B6000882361F190E0880F991FFC01E857FC4F32
:101B7000C591D491FC01E259FC4FA591B49161113A
:101B800009C09FB7F8948881209582238883EC91BF
:101B90002E230BC0623061F49FB7F8943881822FF6
:101BA000809583238883EC912E2B2C939FBF06C0B6
:101BB0008FB7F894E8812E2B28838FBFDF91CF91C8
:101BC00008951F93CF93DF93282F30E0F901EE574C
:101BD000FD4F8491F901E853FD4FD491F901E25F83
:101BE000FC4FC491CC23C9F0162F81110E944F0DD8
:101BF000EC2FF0E0EE0FFF1FE259FC4FA591B491DE
:101C00008FB7F894111105C09C91ED2FE095E92351
:101C100002C0EC91ED2BEC938FBFDF91CF911F9120
:101C20000895CF93DF93282F30E0F901EE57FD4F51
:101C30008491F901E853FD4FD491F901E25FFC4F23
:101C4000C491CC2391F081110E944F0DEC2FF0E054
:101C5000EE0FFF1FEC5AFC4FA591B491EC91ED23D0
:101C600081E090E021F480E002C080E090E0DF912C
:101C7000CF91089508951F920F920FB60F921124DD
:101C80000BB60F922F933F934F935F936F937F9376
:101C90008F939F93AF93BF93EF93FF93E0910402D1
:101CA000F09105021995FF91EF91BF91AF919F912E
:101CB0008F917F916F915F914F913F912F910F90F5
:101CC0000BBE0F900FBE0F901F9018951F920F9292
:101CD0000FB60F9211240BB60F922F933F934F9391
:101CE0005F936F937F938F939F93AF93BF93EF9384
:101CF000FF93E0910602F09107021995FF91EF9191
:101D0000BF91AF919F918F917F916F915F914F9113
:101D10003F912F910F900BBE0F900FBE0F901F9011
:101D200018951F920F920FB60F9211240BB60F92B7
:101D30002F933F934F935F936F937F938F939F93D3
:101D4000AF93BF93EF93FF93E0910802F0910902E4
:101D50001995FF91EF91BF91AF919F918F917F91D5
:101D60006F915F914F913F912F910F900BBE0F900C
:101D70000FBE0F901F9018951F920F920FB60F92E3
:101D800011240BB60F922F933F934F935F936F9352
:101D90007F938F939F93AF93BF93EF93FF93E091C4
:101DA0000A02F0910B021995FF91EF91BF91AF914B
:101DB0009F918F917F916F915F914F913F912F9163
:101DC0000F900BBE0F900FBE0F901F9018951F9293
:101DD0000F920FB60F9211240BB60F922F933F93D1
:101DE0004F935F936F937F938F939F93AF93BF9323
:101DF000EF93FF93E0910002F09101021995FF919A
:101E0000EF91BF91AF919F918F917F916F915F9172
:101E10004F913F912F910F900BBE0F900FBE0F90DF
:101E20001F9018951F920F920FB60F9211240BB6A8
:101E30000F922F933F934F935F936F937F938F9363
:101E40009F93AF93BF93EF93FF93E0910202F091C2
:101E500003021995FF91EF91BF91AF919F918F91DF
:101E60007F916F915F914F913F912F910F900BBE9A
:101E70000F900FBE0F901F9018951F920F920FB6E4
:101E80000F9211240BB60F922F933F934F935F93B2
:101E90006F937F938F939F93AF93BF93EF93FF9332
:101EA000E0910C02F0910D021995FF91EF91BF9115
:101EB000AF919F918F917F916F915F914F913F91E2
:101EC0002F910F900BBE0F900FBE0F901F90189583
:101ED0001F920F920FB60F9211240BB60F922F93F1
:101EE0003F934F935F936F937F938F939F93AF93A2
:101EF000BF93EF93FF93E0910E02F0910F021995BB
:101F0000FF91EF91BF91AF919F918F917F916F91D1
:101F10005F914F913F912F910F900BBE0F900FBE8D
:101F20000F901F9018950895FC016591759185910A
:101F300094910895CF92DF92EF92FF920F931F93A7
:101F4000CF93DF9394E0899FE0011124FE01EE5CC2
:101F5000FB4FDE01A25CBB4F2D913D914D915C91F9
:101F600060817181828193810E946D5E6B017C0131
:101F7000CE018F5F964F0E94940F8E010A5D1B4F1A
:101F8000A70196010E946D5EF801608371838283D0
:101F90009383CE018B50974F0E94940FC45EDD4F08
:101FA000A70196010E946D5E688379838A839B8373
:101FB000DF91CF911F910F91FF90EF90DF90CF9025
:101FC00008950E94CB0B60931704709318048093BC
:101FD000190490931A040895FC012491222341F0DE
:101FE0003091C00035FFFCCF2093C6000196F4CF9E
:101FF0004AE050E08EE096E00C94A630FC0124917B
:10200000222341F03091C00035FFFCCF2093C60061
:102010000196F4CF22E030E08EE096E00C9483311C
:10202000FC012491222341F03091C00035FFFCCF08
:102030002093C6000196F4CF2AE030E08EE096E0CF
:102040000C94D430CF93DF931F921F92CDB7DEB79D
:102050002091A50D3091A60DCE01019621153105D7
:1020600019F48B5A9D4002C0821B930B9A8389837B
:1020700089819A810F900F90DF91CF910895FF92FF
:102080000F931F93CF93DF93FC0120812B3369F1D2
:102090000091D1051091D2050430110534F5F62ECA
:1020A000BC01C091D305D091D40520E62C9FC0017E
:1020B0002D9F900D11248F5A9B4F0E94E766FE01C1
:1020C000ED5FFB4FF082CE01019664E070E00E946C
:1020D00055639093D4058093D3050F5F1F4F1093E2
:1020E000D2050093D10581E001C080E0DF91CF915E
:1020F0001F910F91FF900895CF93DF93D82FC92F91
:102100000E943F10882309F43AC0EDE0F9E0949171
:10211000992341F02091C00025FFFCCF9093C60089
:102120003196F5CFE1ECF8E09491992341F02091BC
:10213000C00025FFFCCF9093C6003196F5CFED2F60
:10214000FC2F9191992339F02091C00025FFFCCFFD
:102150009093C600F6CFEFEBF8E09491992341F00D
:102160002091C00025FFFCCF9093C6003196F5CF9B
:102170009091C00095FFFCCF9AE09093C600DF914C
:10218000CF910895DF92EF92FF920F931F93CF9319
:10219000DF93CDB7DEB76E970FB6F894DEBF0FBEF4
:1021A000CDBF60911B0470911C046115710551F144
:1021B0004DE150E0CE0101967C010E94AA661E8E80
:1021C000F7018F010E191F09D190DD2019F09AE057
:1021D000D912F7CFF701E00FF11F108260E0C701BD
:1021E0000E947C10882371F0DD20A9F00F5F1F4F43
:1021F00080911B0490911C04080F191F10931C045C
:1022000000931B0481E020911B0430911C04232BBC
:1022100039F480E005C010921C0410921B04F2CF28
:102220006E960FB6F894DEBF0FBECDBFDF91CF9193
:102230001F910F91FF90EF90DF900895809A889AF8
:10224000269A2E980895809A889808950E941E11C3
:1022500040E950ED63E070E08EE096E00E948D2F43
:10226000E9EBF8E08491882341F09091C00095FF5C
:10227000FCCF8093C6003196F5CF8091C00085FFDA
:10228000FCCF8AE08093C600EDE0F9E084918823DA
:1022900041F09091C00095FFFCCF8093C60031962D
:1022A000F5CF84B780FF14C0E1EBF8E09491992357
:1022B00041F02091C00025FFFCCF9093C6003196DD
:1022C000F5CF9091C00095FFFCCF9AE09093C600A7
:1022D00081FF14C0E1EAF8E09491992341F0209144
:1022E000C00025FFFCCF9093C6003196F5CF9091AA
:1022F000C00095FFFCCF9AE09093C60082FF14C007
:10230000E0E9F8E09491992341F02091C00025FF85
:10231000FCCF9093C6003196F5CF9091C00095FF09
:10232000FCCF9AE09093C60083FF14C0E0E8F8E089
:102330009491992341F02091C00025FFFCCF909308
:10234000C6003196F5CF9091C00095FFFCCF9AE082
:102350009093C60085FF14C0E0E7F8E084918823DD
:1023600041F09091C00095FFFCCF8093C60031965C
:10237000F5CF8091C00085FFFCCF8AE08093C60036
:1023800014BEE9E6F8E08491882341F09091C00002
:1023900095FFFCCF8093C6003196F5CFEEE5F8E0CF
:1023A0008491882341F09091C00095FFFCCF8093E9
:1023B000C6003196F5CF8091C00085FFFCCF8AE042
:1023C0008093C600EDE0F9E08491882341F090917C
:1023D000C00095FFFCCF8093C6003196F5CFEEE4A8
:1023E000F8E08491882341F09091C00095FFFCCFE4
:1023F0008093C6003196F5CFEDE3F8E08491882311
:1024000041F09091C00095FFFCCF8093C6003196BB
:10241000F5CFE1E3F8E08491882341F09091C0008A
:1024200095FFFCCF8093C6003196F5CFEAE1F8E046
:102430008491882341F09091C00095FFFCCF809358
:10244000C6003196F5CF8091C00085FFFCCF8AE0B1
:102450008093C600EFE0F8E08491882341F09091EA
:10246000C00095FFFCCF8093C6003196F5CFE3E026
:10247000F8E08491882341F09091C00095FFFCCF53
:102480008093C6003196F5CF8091C00085FFFCCFC8
:102490008AE08093C600EDE0F9E08491882341F062
:1024A0009091C00095FFFCCF8093C6003196F5CF88
:1024B000E4EFF7E08491882341F09091C00095FF0C
:1024C000FCCF8093C6003196F5CF0E9422104AE0DF
:1024D00050E0BC018EE096E00E94A630EDEDF7E002
:1024E0008491882341F09091C00095FFFCCF8093A8
:1024F000C6003196F5CF4AE050E060ED74E08EE022
:1025000096E00E94A6308091C00085FFFCCF8AE053
:102510008093C60081E08093030480930404809339
:102520000504809306040E945A5880E00E94B15925
:102530000E94B44E0E944C350E94285D0C946E4A55
:102540000F931F93CF93DF93C0911D04D0911E046E
:1025500065E470E0CE010E94D3668C01CE01019645
:102560000115110571F0F801108260E070E00E9421
:10257000EF6325E4F8012083DF91CF911F910F9144
:10258000089560E070E0DF91CF911F910F910C945E
:10259000EF6380911D0490911E044AE050E060E0DA
:1025A00070E001960C945E6580911D0490911E046C
:1025B0004AE050E060E070E001960E945E65CB0169
:1025C0000895682F70E08091D7059091D8050E94FA
:1025D000D3669C0190931E0480931D0481E0232BFD
:1025E00009F480E00895EF92FF920F931F93CF9329
:1025F0007C0184E50E94E112C82F882391F10E949A
:10260000D4128C011816190644F5EDE0F9E0949106
:10261000992341F08091C00085FFFCCF9093C600C4
:102620003196F5CF8091C00085FFFCCF8DE480937B
:10263000C6004AE050E0B7018EE096E00E94A63066
:10264000B80180EA96E00E94EC0F8091C00085FFFF
:10265000FCCF8AE08093C60008C080930704C0E0E6
:1026600004C080912304809307048C2FCF911F9185
:102670000F91FF90EF9008950F931F93CF93DF93E7
:1026800000D000D0CDB7DEB796E0E4E6F2E0DE01A0
:10269000119601900D929A95E1F790E0FC01EE0FF2
:1026A000FF1F21E030E02C0F3D1FE20FF31F608180
:1026B0007181161617061CF1EDE0F9E02491222332
:1026C00041F03091C00035FFFCCF2093C600319619
:1026D000F5CFE4E1F6E02491222341F03091C000EF
:1026E00035FFFCCF2093C6003196F5CF2091C00076
:1026F00025FFFCCF2AE02093C6006AE070E0880F37
:10270000991F880F991F8C010C5C1C4F072E000C21
:10271000880B990B0E9416609B01AC01F801608147
:102720007181828193810E946C5F60933402709307
:102730003502809336029093370226960FB6F894AE
:10274000DEBF0FBECDBFDF91CF911F910F910895D6
:10275000CF92EF92FF920F931F9320E030E040E77B
:1027600052E40E946C5FC09023047B018C0125EF32
:1027700035E041EF55E06DEE75E089EE95E00E94A1
:10278000C5361F910F91FF90EF90CF900895609103
:1027900034027091350280913602909137020C9488
:1027A000A81325E036E041E056E06DEF75E089EFD3
:1027B00095E00C9488413F924F925F926F927F9286
:1027C0008F929F92AF92BF92CF92DF92EF92FF9241
:1027D0000F931F93CF93DF93382EC82ED12CF60181
:1027E000E253F74F1491E601CC0FDD1FCC0FDD1F34
:1027F000CE0187509A4F7C01FC0110821182128217
:1028000013820E94D113CE018352974F0E94940FDE
:102810002B013C01612F110F770B880B990B0E9444
:1028200016604B015C018E0107511A4F20E030E029
:1028300040EC5FE3C301B2010E946B62A501940109
:102840000E946B62F8016083718382839383FE012F
:10285000EC5CFC4F80819181A281B3818093340232
:1028600090933502A0933602B09337020E94C713AB
:102870000E94E64AF70110821182128213820E949E
:10288000D11380E00E94A042CE018F52974F3C01AD
:102890000E94940F9058A50194010E946B62F80168
:1028A00060837183828393830E94C7130E94E64AE8
:1028B00081E00E94A042832D0E943C13C3010E942C
:1028C000940F9B01AC010E946D5EA50194010E94D2
:1028D0006B62F80160837183828393830E94C713C4
:1028E0000E94E64AFE01E25CFB4F108211821282D6
:1028F0001382CE018751974F0E94940FCE5CDB4F1D
:10290000288139814A815B810E946D5EF701608375
:10291000718382839383832D0E949A0F0E94D11327
:10292000F70180819181A281B381F8018083918335
:10293000A283B383109234021092350210923602B1
:10294000109237020E94A842F601EA51FA4F81E044
:102950008083F601ED51FA4F8083DF91CF911F9173
:102960000F91FF90EF90DF90CF90BF90AF909F902E
:102970008F907F906F905F904F903F90089580E18F
:10298000E9EEF5E0A9EFB5E001900D928A95E1F747
:102990000895CF92DF92EF92FF920F931F93CF9300
:1029A000DF9380E3E82E83E0F82E09EE15E0C9EF0F
:1029B000D5E09DE4C92E94E0D92EF70181917F01E5
:1029C0000E94E1128823D1F00E94A012F60120811A
:1029D000211104C020912204222329F02881398169
:1029E0004A815B8103C020E030E0A9010E946D5E56
:1029F000F801608371838283938309C08881998100
:102A0000AA81BB81F80180839183A283B3830C5F89
:102A10001F4F2496FFEFCF1ADF0A84E3E81683E006
:102A2000F80659F686E40E94E112882399F00E9484
:102A3000A0126B017C0120E030E0A9010E948461BA
:102A4000181644F4C0923402D0923502E092360255
:102A5000F0923702DF91CF911F910F91FF90EF908D
:102A6000DF90CF900895EDE0F9E08491882341F064
:102A70009091C00095FFFCCF8093C6003196F5CFB2
:102A8000EDE8F6E08491882341F09091C00095FF35
:102A9000FCCF8093C6003196F5CFE091D905F09137
:102AA000DA058191882339F09091C00095FFFCCF21
:102AB0008093C600F6CFEAE8F6E08491882341F0DF
:102AC0009091C00095FFFCCF8093C6003196F5CF62
:102AD0000895CF92DF92EF92FF920F931F930E947F
:102AE000CB0B6B017C0180911402882309F47DC01B
:102AF00080910204882309F478C04091FE0350912C
:102B0000FF03609100047091010497018601041B8A
:102B1000150B260B370B37FD7DC0833049F130F4A0
:102B2000813008F462C0EDE0F9E00DC0843009F0B6
:102B30005CC0EDE0F9E042C09091C00095FFFCCF91
:102B40008093C600319684918111F6CFE9E7F6E0D3
:102B50008491882341F09091C00095FFFCCF809331
:102B6000C6003196F5CF8091C00085FFFCCF3AC0FA
:102B7000EDE0F9E08491882341F09091C00095FF49
:102B8000FCCF8093C6003196F5CFE3E6F6E0849162
:102B9000882341F09091C00095FFFCCF8093C60040
:102BA0003196F5CF8091C00085FFFCCF1BC090917E
:102BB000C00095FFFCCF8093C600319684918111AF
:102BC000F6CFECE4F6E08491882341F09091C000C8
:102BD00095FFFCCF8093C6003196F5CF8091C00061
:102BE00085FFFCCF8AE08093C6002091140230E07C
:102BF000A8EEB3E00E94B263DC01CB018C0D9D1DF9
:102C0000AE1DBF1D8093FE039093FF03A0930004AD
:102C1000B09301041F910F91FF90EF90DF90CF9040
:102C200008958F929F92AF92BF92CF92DF92EF92D0
:102C3000FF920F931F93CF93DF9300D01F92CDB7D6
:102C4000DEB785E40E94E112D82E811102C00E94F5
:102C5000E64A80E3A82E83E0B82E9EE3E92E94E0B6
:102C6000F92E09EF15E0812C912CC12CF5018191F1
:102C70005F010E94E112882369F1F801208131810E
:102C80004281538129833A834B835C830E94A01243
:102C9000F801608371838283938329813A814B8118
:102CA0005C81F3E08F169104A9F00E946C5E9B0199
:102CB000AC01F70160817181828193810E946D5E18
:102CC000F7016083718382839383882D0E949A0F1A
:102CD000CC24C394FFEF8F1A9F0A84E0E80EF11C06
:102CE0000C5F1F4FE4E08E16910409F0BFCFCC209B
:102CF00091F00F900F900F900F90DF91CF911F9157
:102D00000F91FF90EF90DF90CF90BF90AF909F908A
:102D10008F900C94D113DD20A1F085E096E00F9008
:102D20000F900F900F90DF91CF911F910F91FF9017
:102D3000EF90DF90CF90BF90AF909F908F900C94CA
:102D40003B420F900F900F900F90DF91CF911F910A
:102D50000F91FF90EF90DF90CF90BF90AF909F903A
:102D60008F900895EF92FF920F931F93CF93DF936D
:102D7000CDB7DEB76E970FB6F894DEBF0FBECDBFEE
:102D800088E094E00E94135EBC0180E090E02CE3B8
:102D900030E040E050E00E9469637F936F933F937F
:102DA0002F9385E096E09F938F938E010F5F1F4FC7
:102DB0001F930F930E94EE660FB6F894DEBF0FBE0E
:102DC000CDBFEDE0F9E08491882341F09091C000FF
:102DD00095FFFCCF8093C6003196F5CFF801819125
:102DE000882339F09091C00095FFFCCF8093C600F6
:102DF000F6CF8091C00085FFFCCF8AE08093C600AB
:102E000080918C0B882331F110928C0B009123045C
:102E100010E0C801880F991FFC01EA56F24F7F01AC
:102E200060817181072E000C880B990B0E9416603F
:102E300020913D0230913E0240913F02509140026C
:102E40000E948461181634F4F70111821082C801BF
:102E50000E94764F6E960FB6F894DEBF0FBECDBFC0
:102E6000DF91CF911F910F91FF90EF9008950F93F5
:102E70001F93CF93DF9383E50E94E112882389F1AA
:102E80000E94D4128C018F3F910509F050F580E526
:102E90000E94E112882331F00E94D412EC0197FDC8
:102EA00020C002C0CDE0D0E0EAEFF2E08191919144
:102EB000C817D907B1F083E0E033F807B9F761E04C
:102EC0008C2F0E94A50D602F8C2F0E94E10DB80160
:102ED0008C2F0E94860C279721F4109325040093D1
:102EE0002404DF91CF911F910F910895CF92DF922B
:102EF000EF92FF920F931F93CF93DF9388E690E0BA
:102F00000E94F312811141C080910D0683FD3DC0E6
:102F100083E50E94E1128823C1F10E94A0126B0197
:102F20007C01C0910704D0E08E01000F111F0A56EA
:102F3000124FC701B6010E94DE5FF8017183608302
:102F4000CE010E94764F20E030E04AEA52E4C70109
:102F5000B6010E94625F181664F088E094E0DF9189
:102F6000CF911F910F91FF90EF90DF90CF900C9435
:102F7000F05D88E094E0DF91CF911F910F91FF9079
:102F8000EF90DF90CF900C94395EDF91CF911F913D
:102F90000F91FF90EF90DF90CF900895E8E4F6E076
:102FA0008491882341F09091C00095FFFCCF8093DD
:102FB000C6003196F5CFE091070484E0E89FF00168
:102FC0001124E458F24F408151816281738121E0E4
:102FD00030E08EE096E00E948331E5E4F6E08491F3
:102FE000882341F09091C00095FFFCCF8093C600EC
:102FF0003196F5CFE0910704F0E0EE0FFF1FEA569F
:10300000F24F60817181072E000C880B990B0E9492
:103010001660AB01BC0121E030E08EE096E00E943A
:103020008331E1E4F6E08491882341F09091C0007F
:1030300095FFFCCF8093C6003196F5CF4091760D79
:103040005091770D6091780D7091790D21E030E00D
:103050008EE096E00E948331EEE3F6E084918823CF
:1030600041F09091C00095FFFCCF8093C60031964F
:10307000F5CF6091940D7091950D072E000C880B83
:10308000990B0E941660AB01BC0121E030E08EE09C
:1030900096E00E948331E9E3F6E08491882341F0D1
:1030A0009091C00095FFFCCF8093C6003196F5CF7C
:1030B0008FEF9FEF0E94674C4AE050E0BC018EE02A
:1030C00096E00E94A630E5E3F6E08491882341F083
:1030D0009091C00095FFFCCF8093C6003196F5CF4C
:1030E0008091070490E00E94674C4AE050E0BC01E8
:1030F0008EE096E00C94A63089E690E00E94F312F0
:10310000811116C0E7EBF5E08491882341F090919E
:10311000C00095FFFCCF8093C6003196F5CF0E948A
:10312000CE178091C00085FFFCCF8AE08093C60057
:10313000089583E50E94E112882319F00E94D412B9
:1031400001C080E080930D06EDE0F9E084918823D2
:1031500041F09091C00095FFFCCF8093C60031965E
:10316000F5CFEEEFF5E08491882341F09091C00017
:1031700095FFFCCF8093C6003196F5CF80910D0668
:10318000882399F144EF55E020E030E060E07CE2F4
:1031900080910D0690E0022E02C0959587950A94C5
:1031A000E2F780FF1AC0A1E0A60F662331F08091FC
:1031B000C00085FFFCCF7093C600FA018591949101
:1031C000FC016491662341F0E091C000E5FFFCCF73
:1031D0006093C6000196F4CF6A2F2F5F3F4F4E5F7A
:1031E0005F4F25303105A1F60DC0E0EFF5E0849189
:1031F000882341F09091C00095FFFCCF8093C600DA
:103200003196F5CF8091C00085FFFCCF8AE0809396
:10321000C600089583E50E94E112882341F00E94D0
:10322000D4128D3308F08CE3809314020895EDE0FE
:10323000F9E08491882341F09091C00095FFFCCF84
:103240008093C6003196F5CF4091140250E060E0C3
:1032500070E08AEB95E00E9410108091C00085FF1D
:10326000FCCF8AE08093C600089583E50E94E112B6
:10327000882399F00E94A01220E030E04AE754E44D
:103280000E946B620E94E55F6093180270931902BE
:1032900080931A0290931B02089588E50E94E11220
:1032A000811111C089E50E94E11281110CC08AE5EB
:1032B0000E94E112811107C085E40E94E112811190
:1032C00002C00C94414B0E94E64A88E50E94E1123C
:1032D000882319F0159A1092E60589E50E94E112FB
:1032E000882319F0179A1092E7058AE50E94E112E7
:1032F000882319F0429A1092E80585E40E94E112B1
:10330000882311F0A09A089508953F924F925F92FA
:103310006F927F928F929F92AF92BF92CF92DF92E5
:10332000EF92FF920F931F93CF93DF9380E3C82E0A
:1033300083E0D82ECDECDBE09DEDE92E9BE0F92E6D
:103340000DE81BE0312CF60181916F010E94E11222
:10335000882309F458C0F3E03F124FC00E94A01226
:103360004B015C0120E030E040EA51E40E94625FE2
:1033700087FF3EC0A5019401688179818A819B8184
:103380000E946C5F2B013C019B01AC016091A10B81
:103390007091A20B8091A30B9091A40B0E946B6281
:1033A0006093A10B7093A20B8093A30B9093A40B3B
:1033B000A3019201F70160817181828193810E9452
:1033C0006B62F7016083718382839383F80160816C
:1033D0007181828193810E941460A30192010E94F5
:1033E0006B620E94E55FF80160837183828393833F
:1033F00088829982AA82BB8206C00E94A01268833A
:1034000079838A839B8333942496F4E0EF0EF11C36
:103410000C5F1F4F84E0381296CFDF91CF911F9140
:103420000F91FF90EF90DF90CF90BF90AF909F9063
:103430008F907F906F905F904F903F9008958F9204
:103440009F92AF92BF92CF92DF92EF92FF92E4EE03
:10345000F4E08491882341F09091C00095FFFCCF67
:103460008093C6003196F5CF4091F9055091FA0549
:103470006091FB057091FC0522E030E08EE096E063
:103480000E948331E0EEF4E08491882341F0909132
:10349000C00095FFFCCF8093C6003196F5CF4091D8
:1034A000FD055091FE056091FF057091000622E038
:1034B00030E08EE096E00E948331ECEDF4E0849100
:1034C000882341F09091C00095FFFCCF8093C60007
:1034D0003196F5CF409101065091020660910306A6
:1034E0007091040622E030E08EE096E00E94833185
:1034F000E8EDF4E08491882341F09091C00095FFBD
:10350000FCCF8093C6003196F5CF409105065091CF
:103510000606609107067091080622E030E08EE012
:1035200096E00E9483318FB7F8944091F10B50914F
:10353000F20B6091F30B7091F40B8090F50B90906F
:10354000F60BA090F70BB090F80BC090F90BD09051
:10355000FA0BE090FB0BF090FC0B8FBFEDECF4E06E
:103560008491882341F09091C00095FFFCCF809317
:10357000C6003196F5CF2AE030E08EE096E00E945A
:103580007F30E9ECF4E08491882341F09091C00011
:1035900095FFFCCF8093C6003196F5CF2AE030E04E
:1035A000B501A4018EE096E00E947F30E5ECF4E0E6
:1035B0008491882341F09091C00095FFFCCF8093C7
:1035C000C6003196F5CF2AE030E0B701A6018EE0C3
:1035D00096E00E947F308091C00085FFFCCF8AE09A
:1035E0008093C600FF90EF90DF90CF90BF90AF9098
:1035F0009F908F9008951F93CF93DF930E94E64A88
:103600008091340290913502A0913602B091370238
:103610008093090690930A06A0930B06B0930C06BC
:10362000809132029091330290934C0480934B042A
:1036300084E690E090933302809332020E94E10F7F
:1036400081E00E94A04280E1E9EFF5E0A9EEB5E05B
:1036500001900D928A95E1F7109234021092350292
:10366000109236021092370288E50E94E112182F5C
:1036700089E50E94E112D82F8AE50E94E112C82F45
:10368000111105C0D11105C091E0982705C0D111D5
:1036900002C090E001C0982F90931702911102C0D0
:1036A000112319F080E00E94DB1380911702811131
:1036B00002C0DD2319F081E00E94DB138091170224
:1036C000811102C0CC2319F082E00E94DB130E941A
:1036D000D11380E00E94A0428091090690910A06D1
:1036E000A0910B06B0910C068093340290933502A2
:1036F000A0933602B093370280914B0490914C0412
:1037000090933302809332020E94E10F0E94A842FC
:10371000DF91CF911F910C941F1AE9EAF2E0819199
:10372000882339F09091C00095FFFCCF8093C600AC
:10373000F6CF8091C00085FFFCCF8AE08093C60061
:10374000EDEBF4E08491882341F09091C00095FF67
:10375000FCCF8093C6003196F5CF009B03C0E4EA0E
:10376000F2E009C0EAE9F2E006C09091C00095FFDE
:10377000FCCF8093C60081918111F7CF8091C0006A
:1037800085FFFCCF8AE08093C600E5EBF4E08491EE
:10379000882341F09091C00095FFFCCF8093C60034
:1037A0003196F5CF049B03C0E4EAF2E009C0EAE9F0
:1037B000F2E006C09091C00095FFFCCF8093C60058
:1037C00081918111F7CF8091C00085FFFCCF8AE005
:1037D0008093C600EDEAF4E08491882341F0909153
:1037E000C00095FFFCCF8093C6003196F5CF379B84
:1037F00003C0E4EAF2E009C0EAE9F2E006C0909111
:10380000C00095FFFCCF8093C60081918111F7CF56
:103810008091C00085FFFCCF8AE08093C6000895A8
:1038200083E50E94E1128823F9F00E94A012AB0107
:10383000BC014093B50B5093B60B6093B70B7093DC
:10384000B80B4093AD0B5093AE0B6093AF0B7093DE
:10385000B00B85E894E00E94FE0F8091C00085FFC8
:10386000FCCF8AE08093C60080E50E94E1128823A5
:10387000B9F00E94A012AB01BC014093B50B50936C
:10388000B60B6093B70B7093B80B88E694E00E9478
:10389000FE0F8091C00085FFFCCF8AE08093C600B8
:1038A00082E50E94E1128823B9F00E94A012AB01C8
:1038B000BC014093B10B5093B20B6093B30B709368
:1038C000B40B89E494E00E94FE0F8091C00085FF54
:1038D000FCCF8AE08093C60084E50E94E112882331
:1038E000B9F00E94A012AB01BC014093AD0B509304
:1038F000AE0B6093AF0B7093B00B8BE294E00E9421
:10390000FE0F8091C00085FFFCCF8AE08093C60047
:10391000089583E50E94E112882351F00E94A012CD
:103920006093B90B7093BA0B8093BB0B9093BC0B55
:1039300084E50E94E112882351F00E94A012609356
:103940009D0B70939E0B80939F0B9093A00B82E432
:103950000E94E112882361F00E94A0120E94E55F9C
:103960006093ED0B7093EE0B8093EF0B9093F00B45
:1039700088E50E94E112882351F00E94A012609312
:10398000A90B7093AA0B8093AB0B9093AC0B8AE5B9
:103990000E94E112882351F00E94A0126093A50BAF
:1039A0007093A60B8093A70B9093A80B85E40E94BD
:1039B000E112882351F00E94A0126093A10B709332
:1039C000A20B8093A30B9093A40B08958F929F92C8
:1039D000AF92BF92CF92DF92EF92FF920F931F931D
:1039E000CF9380E3C82E83E0D82E99EFE92E95E09F
:1039F000F92E02E314E0C0E0F60181916F010E940C
:103A0000E112882309F10E94A0124B015C01F80128
:103A100020813181428153810E946C5E9B01AC0107
:103A2000F70160817181828193810E946D5EF7014F
:103A30006083718382839383F80180829182A28262
:103A4000B3828C2F0E949A0FCF5FF4E0EF0EF11C2F
:103A50000C5F1F4FC33081F6CF911F910F91FF90E4
:103A6000EF90DF90CF90BF90AF909F908F900C948D
:103A7000D11385E40E94E112811110C080E50E94FB
:103A8000E1128823A9F00E94A01260935F02709354
:103A9000600280936102909362020AC00E94A012A9
:103AA0000E94DE5F161617064CF7E3E1F9E0D5C079
:103AB00089E40E94E112882361F00E94A0120E9412
:103AC0003E5860935B0270935C0280935D0290931A
:103AD0005E0284E40E94E112882361F00E94A01239
:103AE0000E944C5860935702709358028093590279
:103AF00090935A0283E40E94E112882351F00E94BD
:103B0000A0126093530270935402809355029093D5
:103B100056028CE40E94E112882341F00E94A01218
:103B20000E94DE5F70931602609315028091150269
:103B300090911602C39734F082E390E090931602BE
:103B4000809315020E94484CEDE0F9E084918823AF
:103B500041F09091C00095FFFCCF8093C600319654
:103B6000F5CFE2ECF2E08191882339F09091C0002A
:103B700095FFFCCF8093C600F6CF40915F02509135
:103B80006002609161027091620222E030E08EE09A
:103B900096E00E948331E6ECF2E08191882339F0CF
:103BA0009091C00095FFFCCF8093C600F6CF609146
:103BB0005B0270915C0280915D0290915E020E94B6
:103BC0004558AB01BC0122E030E08EE096E00E9457
:103BD0008331EAECF2E08191882339F09091C000C2
:103BE00095FFFCCF8093C600F6CF6091570270918D
:103BF00058028091590290915A020E945358AB0189
:103C0000BC0122E030E08EE096E00E948331EEECD1
:103C1000F2E08191882339F09091C00095FFFCCFAC
:103C20008093C600F6CF40915302509154026091A8
:103C300055027091560222E030E08EE096E00E943C
:103C400083318091C00085FFFCCF1AC09091C000E5
:103C500095FFFCCF8093C600319684918111F6CFF9
:103C6000E2EDF2E08191882339F09091C00095FF58
:103C7000FCCF8093C600F6CF8091C00085FFFCCFBB
:103C80008AE08093C6000895EF92FF920F93CF933E
:103C9000DF9385E40E94E112882321F00E94D41270
:103CA000EC0102C0C0E0D0E083E40E94E11288236E
:103CB00021F00E94D4127C0103C085E0E82EF12C93
:103CC00085E50E94E112882329F00E94D41201E0C8
:103CD000892B09F400E083E50E94E112882319F0A2
:103CE0000E94A01206C0D7FD09C060E070E086E126
:103CF00093E4209739F41092070404C060E070E068
:103D00008CE892E4109202049701AE010E94935253
:103D100081E080930204DF91CF910F91FF90EF90AB
:103D200008952F923F924F925F926F927F928F925F
:103D30009F92AF92BF92CF92DF92EF92FF920F933A
:103D40001F93CF93DF9300D01F921F92CDB7DEB7A2
:103D500082E3282E84E0382E09EF15E083EE95E00B
:103D60009A8389831D821C8280958B83E981FA81E5
:103D70008191FA83E983882309F4ACC0EC81FD8149
:103D8000E45EFD4F2081318142815381EC81FD81D0
:103D9000EA5DFB4F60817181828193810E946D5E3B
:103DA00020E030E040E05FE30E946B629B01AC01E9
:103DB000F80160817181828193810E94846118166B
:103DC0004CF48C819D818751974F0E94940F9B01E9
:103DD000AC0103C020E030E0A901F80180809180AF
:103DE000A280B380C501B4010E946C5E6B017C01AE
:103DF00020E030E040EA51EC0E94846118168CF516
:103E000020E030E040EA51E4C701B6010E94625F61
:103E100087FF27C0F1014080518062807380A70135
:103E20009601C301B2010E946C5E6B017C01A3018B
:103E300092010E946C5E9B01AC01C501B4010E941D
:103E40006D5EF8016083718382839383F101C08288
:103E5000D182E282F3828981FB818F0F0E949A0FC7
:103E600039C0E3E1F9E08491882341F09091C000EA
:103E700095FFFCCF8093C6003196F5CFEEE0F4E0DD
:103E80008491882341F09091C00095FFFCCF8093EE
:103E9000C6003196F5CF8091C00085FFFCCF8AE047
:103EA0008093C6000F900F900F900F900F90DF91AE
:103EB000CF911F910F91FF90EF90DF90CF90BF9027
:103EC000AF909F908F907F906F905F904F903F90BA
:103ED0002F90089584E0280E311CEC81FD813496EA
:103EE000FD83EC830C5F1F4F3C9709F03FCF0F9091
:103EF0000F900F900F900F90DF91CF911F910F9126
:103F0000FF90EF90DF90CF90BF90AF909F908F90F9
:103F10007F906F905F904F903F902F900C94D113B3
:103F2000CF92DF92EF92FF92882361F1EDE0F9E00A
:103F30009491992341F02091C00025FFFCCF9093EC
:103F4000C6003196F5CF9091C00095FFFCCF94E567
:103F50009093C6004AE050E0682F8EE096E00E9401
:103F6000E030E2EDF2E08191882339F09091C000D9
:103F700095FFFCCF8093C600F6CF8091C00085FFEF
:103F8000FCCF40C01092070486E40E94E11288230F
:103F900099F00E94A0126B017C0120E030E0A901A1
:103FA0000E948461181644F4C0923402D092350203
:103FB000E0923602F0923702EDE0F9E08491882336
:103FC00041F09091C00095FFFCCF8093C6003196E0
:103FD000F5CFE3EEF2E08191882339F09091C000B3
:103FE00095FFFCCF8093C600F6CF6091230470E06C
:103FF0004AE050E08EE096E00E94A6308091C0003A
:1040000085FFFCCF8AE08093C600FF90EF90DF90A1
:10401000CF9008950E94E10FE091D505F091D6056B
:10402000ED5FFB4F8081811101C00895E2E0F4E073
:104030008491882341F09091C00095FFFCCF80933C
:10404000C6003196F5CF8091C00085FFFCCF8AE095
:104050008093C60008958EE096E00E94DB2FE5E095
:10406000F4E08491882341F09091C00095FFFCCF4B
:104070008093C6003196F5CF4091DB055091DC0569
:104080006091DD057091DE054F5F5F4F6F4F7F4F91
:104090002AE030E08EE096E00E947F308091C00000
:1040A00085FFFCCF8AE08093C6000C940A20CF9352
:1040B000C62FE3E1F9E02491222379F03091C0008A
:1040C00035FFFCCF2093C6003196F5CF3091C0006C
:1040D00035FFFCCF2093C6000196FC0124912111ED
:1040E000F5CF4091DB055091DC056091DD057091C5
:1040F000DE052AE030E08EE096E00E947F3080917D
:10410000C00085FFFCCF8AE08093C600C1110E94E9
:104110002B201092200410921F04CF910895CF926B
:10412000DF92EF92FF92CF93DF93EC01C0902604D1
:10413000D0902704E0902804F0902904A70196016C
:10414000688179818A819B810E94625F87FF04C0B8
:10415000C882D982EA82FB82C0902A04D0902B04C4
:10416000E0902C04F0902D04A70196016C817D81D4
:104170008E819F810E94625F87FF04C0CC82DD82B6
:10418000EE82FF8220E030E0A90160912E04709160
:104190002F0480913004909131040E946D5E6B0178
:1041A0007C019B01AC01688579858A859B850E948D
:1041B000625F87FF04C0C886D986EA86FB86C09006
:1041C0001C02D0901D02E0901E02F0901F02A70179
:1041D0009601688179818A819B810E948461181689
:1041E00024F4C882D982EA82FB82C0902002D09057
:1041F0002102E0902202F0902302A70196016C8137
:104200007D818E819F810E948461181624F4CC8266
:10421000DD82EE82FF82C0902402D0902502E090E1
:104220002602F0902702A7019601688579858A8584
:104230009B850E948461181624F4C886D986EA8674
:10424000FB86DF91CF91FF90EF90DF90CF900895A4
:104250008F929F92AF92BF92CF92DF92EF92FF9296
:104260000F931F93CF93DF9320910D0623FD92C0F0
:104270008B01EC01FB0180809180A280B3802881BA
:1042800039814A815B81C501B4010E946C5E6B017A
:104290007C0120E030E0A9010E94625F882309F4DC
:1042A00079C0E091230424E0E29FF0011124E45856
:1042B000F24F209110023091110240911202509160
:1042C000130260817181828193810E94625F87FF06
:1042D00025C088829982AA82BB82EDE0F9E08491B0
:1042E000882341F09091C00095FFFCCF8093C600D9
:1042F0003196F5CFE8EEF3E08491882341F0909178
:10430000C00095FFFCCF8093C6003196F5CF809119
:10431000C00085FFFCCF8AE08093C600C701B601CC
:104320000E94DE5F97FF07C090958095709561951C
:104330007F4F8F4F9F4F6B3971408105910554F12D
:10434000F80180819181A281B38188839983AA83B6
:10435000BB83EDE0F9E08491882341F09091C000A7
:1043600095FFFCCF8093C6003196F5CFEAECF3E0E1
:104370008491882341F09091C00095FFFCCF8093F9
:10438000C6003196F5CF8091C00085FFFCCF8AE052
:104390008093C600DF91CF911F910F91FF90EF9016
:1043A000DF90CF90BF90AF909F908F90089589EE4F
:1043B00095E00E948F200E94E10F65EF75E085E097
:1043C00096E00E9428212091E9053091EA0540916C
:1043D000EB055091EC056091F9057091FA0580911B
:1043E000FB059091FC050E94625F811117C020912E
:1043F000ED053091EE054091EF055091F00560918B
:10440000FD057091FE058091FF05909100060E94C8
:10441000625F811103C00E94C7131CC06091320209
:1044200070913302072E000C880B990B0E941660C6
:10443000209134023091350240913602509137027A
:104440000E946B6220E030E048EC52E40E946C5F16
:104450000E94A8130C94BF142F923F924F925F9228
:104460006F927F928F929F92AF92BF92CF92DF9284
:10447000EF92FF920F931F93CF93DF93CDB7DEB7E9
:10448000C654D1090FB6F894DEBF0FBECDBF1C01D4
:104490007EA76DA7142FDB011496CD90DD90ED90D3
:1044A000FC9017978D909D90AD90BC90A7019601C0
:1044B000C501B4010E9497616BAB7CAB8DAB9EAB29
:1044C0008091F9059091FA05A091FB05B091FC054A
:1044D0008D8B9E8BAF8BB88FA5019401BC01CD0154
:1044E0000E946D5E6BAF7CAF8DAF9EAF8091FD057E
:1044F0009091FE05A091FF05B0910006898F9A8FDB
:10450000AB8FBC8FA7019601BC01CD010E946D5EEF
:1045100023966CAF7DAF8EAF9FAF2397809101063E
:1045200090910206A0910306B09104068D8F9E8F94
:10453000AF8FB8A39C01AD01D10118966D917D910B
:104540008D919C911B970E946C5E69A37AA38BA3AB
:104550009CA3D1011C968D919D910D90BC91A02D95
:1045600027968CAF9DAFAEAFBFAF27978091050662
:1045700090910606A0910706B09108068DA39EA310
:10458000AFA3B8A72401350177FA709477F8709437
:10459000D701C601B058898B9A8BAB8BBC8BD101EC
:1045A0008D919D910D90BC91A02D89A79AA7ABA745
:1045B000BCA72BAD3CAD4DAD5EADBC01CD010E94A5
:1045C0006C5E6B017C01D10114968D919D910D90D3
:1045D000BC91A02D8FA798ABA9ABBAAB23962CADFD
:1045E0003DAD4EAD5FAD2397BC01CD010E946C5E29
:1045F0004B015C01A7019601C301B2010E946B62ED
:104600006FAB78AF89AF9AAFA501940169897A89B8
:104610008B899C890E946B629B01AC016FA978AD6C
:1046200089AD9AAD0E946D5E6FAB78AF89AF9AAFDE
:10463000A5019401C301B2010E946B624B015C01B0
:10464000A701960169897A898B899C890E946B628E
:104650009B01AC01C501B4010E946C5E2FA938AD6D
:1046600049AD5AAD0E94EC5E6B017C0120E030E068
:10467000A9010E94625F87FF0AC02BED3FE049EC71
:1046800050E4C701B6010E946D5E6B017C011123ED
:1046900051F02BED3FE049EC50E4C701B6010E9418
:1046A0006C5E6B017C0120E030E0A901C701B6011E
:1046B0000E94625F811122C029A53AA54BA55CA585
:1046C0006D897E898F89988D0E94625F811116C0E5
:1046D0002FA538A949A95AA9698D7A8D8B8D9C8DF2
:1046E0000E94625F81110AC02BED3FE049EC50E46B
:1046F000C701B6010E946D5E6B017C012BA93CA92C
:104700004DA95EA9C701B6010E946B6229A13AA119
:104710004BA15CA15F770E9497614B015C012FE682
:1047200032E143E85AE30E94625F87FDB3C1C501ED
:10473000B4010E9451600E94E55F7A8F698FFB018E
:10474000EF2B21F421E030E03A8F298FA98DBA8D2B
:10475000BD0180E090E00E9414604B015C019B0170
:10476000AC01C701B6010E946C5F6D8B7E8B8F8B95
:10477000988FA501940169A17AA18BA19CA10E94A7
:104780006C5F6FA778AB89AB9AAB2DA13EA14FA10F
:1047900058A527966CAD7DAD8EAD9FAD27970E9435
:1047A0006C5EA50194010E946C5F6BAB7CAB8DAB22
:1047B0009EAB20E030E040E05FE36D897E898F8929
:1047C000988D0E946B622D893E894F89588D0E9479
:1047D0006B629B01AC0160E070E080E89FE30E94A7
:1047E0006C5E69A37AA38BA39CA38D8D9E8DAF8DE8
:1047F000B8A189879A87AB87BC878DA19EA1AFA1FD
:10480000B8A58D879E87AF87B88B60913202709173
:104810003302072E000C880B990B0E941660209122
:1048200034023091350240913602509137020E9495
:104830006B6220E030E040E752E40E946C5F20E0D1
:1048400030E048EC52E40E946C5F6DA37EA38FA31E
:1048500098A7A12CA1E0B0E0BE8FAD8F2D8D3E8D2D
:10486000898D9A8D2817390709F400C1A394B8E1FE
:10487000BA150CF43FC029A13AA14BA15CA16989EA
:104880007A898B899C890E946B626B017C012D89DE
:104890003E894F89588DC301B2010E946B62A70106
:1048A00096010E946D5EB62ED72E7C0129A13AA1F9
:1048B0004BA15CA1C301B2010E946B622B013C01C0
:1048C0002D893E894F89588D69897A898B899C8980
:1048D0000E946B629B01AC01C301B2010E946C5E3D
:1048E0002B013C018B2D9D2DD701898B9A8BAB8B96
:1048F000BC8B67C0ED8DFE8DBF0180E090E00E9413
:1049000014602D893E894F89588D0E946B626B011E
:104910007C010E94675F698B7A8B8B8B9C8BC701B4
:10492000B6010E94D8624B015C01ADA5BEA5CD9039
:10493000DD90ED90FC901397F7FAF094F7F8F0946F
:1049400014968D919D910D90BC91A02D89A79AA749
:10495000ABA7BCA729893A894B895C89C701B601F5
:104960000E946B622B013C01A501940169A57AA507
:104970008BA59CA50E946B629B01AC01C301B20197
:104980000E946D5E2B013C01A5019401C701B60197
:104990000E946B626B017C0129893A894B895C8991
:1049A00069A57AA58BA59CA50E946B629B01AC01B1
:1049B000C701B6010E946C5E698B7A8B8B8B9C8BD6
:1049C000A12CA30192016BAD7CAD8DAD9EAD0E947B
:1049D0006D5E69837A838B839C8329893A894B89AD
:1049E0005C8923966CAD7DAD8EAD9FAD23970E9403
:1049F0006D5E6D837E838F8398872FA538A949A923
:104A00005AA969857A858B859C850E946D5E698728
:104A10007A878B879C872BA93CA94DA95EA96D85B8
:104A20007E858F8598890E946D5E6D877E878F87D2
:104A3000988BCE0101960E948F20C0902304EDA098
:104A4000FEA00FA118A59E01235F3F4FAE01475F57
:104A50005F4FBE016B5F7F4FCE0101960E94C5364E
:104A6000ED8DFE8D3196FE8FED8FF8CE9101245F96
:104A70003F4FA101485F5F4FB1016C5F7F4FC09016
:104A80002304EDA0FEA00FA118A5C1010E94C53608
:104A90000E94BF14CA5BDF4F0FB6F894DEBF0FBE93
:104AA000CDBFDF91CF911F910F91FF90EF90DF90DD
:104AB000CF90BF90AF909F908F907F906F905F90BE
:104AC0004F903F902F9008951F93CF93DF93CDB7D2
:104AD000DEB728970FB6F894DEBF0FBECDBF90911A
:104AE0003802992359F1182F0E94C91489E40E94B1
:104AF000E112882319F00E94A01203C060E070E068
:104B0000CB0169837A838B839C838AE40E94E112C0
:104B1000882319F00E94A01203C060E070E0CB016E
:104B20006D837E838F839887412FBE016F5F7F4F98
:104B300089EE95E00E942C220E94E10F28960FB684
:104B4000F894DEBF0FBECDBFDF91CF911F910895C6
:104B5000159817984298A0980895159AE6EEF5E0F2
:104B60001082179A1182429A1282A09A0895F8949C
:104B70000E94DB4F0E94AD2560E08CE00E94A50DF5
:104B8000E3E1F9E08491882341F09091C00095FF22
:104B9000FCCF8093C6003196F5CFE2EAF3E0849132
:104BA000882341F09091C00095FFFCCF8093C60010
:104BB0003196F5CF8091C00085FFFCCF8AE08093CD
:104BC000C6007894C6E0D0E0219739F068EC70E038
:104BD00080E090E00E94FC0BF7CFF8940E94231134
:104BE000A895FECF8F929F92AF92BF92CF92DF9205
:104BF000EF92FF920F931F93CF93DF938AE0F82EEB
:104C00008091D1059091D20504970CF02EC12FB759
:104C1000F89480918F06909190062FBF891B8F7713
:104C200009F423C18EE096E00E94C32F20911F0457
:104C3000309120048A3019F08D3009F0E3C01092D1
:104C4000FD0321153105E1F2F901E356FC4F108215
:104C50001092200410921F042DE933E0E9018881AD
:104C60002F5F3F4F8032D1F38E018E3411F0C0E0C0
:104C7000D0E06AE270E0C8010E94D3666C01209720
:104C800009F474C068ED77E0C8010E94B966EE24AB
:104C9000E394892B11F4E12C09C06EE470E0C801A3
:104CA00004960E94D366009709F0EC014AE050E0B8
:104CB00060E070E0CE0101960E945E656093DF05C2
:104CC0007093E0058093E1059093E2058090DB0509
:104CD0009090DC05A090DD05B090DE052FEF821AE4
:104CE000920AA20AB20A681579058A059B0531F075
:104CF000E11004C061E085EA97E03DC0C114D10431
:104D000001F180E0C0E0F801E80FF11D90819A32D6
:104D100019F08F5FC927F7CF4AE050E060E070E0FC
:104D2000C60101960E945E658C2E912CA12CB12C9F
:104D3000681579058A059B0541F061E086E897E0F2
:104D40001AC061E08CE597E016C08091DF05909174
:104D5000E005A091E105B091E2058093DB05909319
:104D6000DC05A093DD05B093DE0513C0892B89F027
:104D700060E082E397E0DF91CF911F910F91FF9068
:104D8000EF90DF90CF90BF90AF909F908F900C945A
:104D9000572080913802811124C067E470E0C80177
:104DA0000E94D3660097E9F04AE050E060E070E0CE
:104DB00001960E945E656430710598F4ECEBF6E0B4
:104DC0008491882341F09091C00095FFFCCF80939F
:104DD000C6003196F5CF8091C00085FFFCCFF092E0
:104DE000C60065EF72E0C8010E94DE66892B21F4DF
:104DF00083EB96E00E94B72561E08DE993E00E9485
:104E00003F10FECE2F3531050CF0FACE8C35C1F4B3
:104E10002FB7F89480918F06909190062FBF891B31
:104E20008F7709F4EDCE8EE096E00E94C32F90912B
:104E3000FD039111E5CE20911F043091200409C09B
:104E40008B3319F491E09093FD039091FD03911140
:104E5000D7CEA9014F5F5F4F5093200440931F04AA
:104E6000F901E356FC4F8083CBCEDF91CF911F91A8
:104E70000F91FF90EF90DF90CF90BF90AF909F90F9
:104E80008F9008950E94C210811102C00C94F225E7
:104E90000895CF92DF92EF92FF920F931F93CF93DB
:104EA000C82F8091D1059091D205049714F40E94E7
:104EB00042270E94CB0BC0901304D0901404E090C2
:104EC0001504F0901604C114D104E104F104C1F0FA
:104ED00000911704109118042091190430911A04BC
:104EE0000C0D1D1D2E1D3F1D6B017C01C01AD10A2A
:104EF000E20AF30AF7FC04C081EC93E00E94B725B4
:104F0000C0901802D0901902E0901A02F0901B0293
:104F1000C114D104E104F104E1F0009117041091EF
:104F200018042091190430911A040C0D1D1D2E1D1A
:104F30003F1DDC01CB01801B910BA20BB30BB7FD16
:104F400008C0C11106C09091BB068091BA0698179F
:104F500049F0CF911F910F91FF90EF90DF90CF908C
:104F60000C94A736159A1092E605179A1092E70549
:104F7000429A1092E805A09AECCF0E94615180E01D
:104F80000E9449270C946915CF92DF92EF92FF920D
:104F900080E50E94E112882329F00E94C9126B016A
:104FA0007C0103C0C12CD12C760183E50E94E11263
:104FB000882361F00E94A01220E030E04AE754E428
:104FC0000E946B620E94E55F6B017C010E94E64AD1
:104FD0000E94E10F8091170490911804A091190488
:104FE000B0911A04C80ED91EEA1EFB1E0E94CB0BFC
:104FF000DC01CB018C199D09AE09BF09B7FF03C0C5
:105000000E94BD27F3CFFF90EF90DF90CF900895DF
:105010004F925F926F927F928F929F92AF92BF92C8
:10502000CF92DF92EF92FF920F931F93CF93DF9374
:105030008DE690E00E94F31281114FC180910D0620
:1050400083FD4BC183E50E94E112F82E811105C05A
:1050500082E50E94E112882321F10E94A0124B01F7
:105060005C010091070410E0E801CC0FDD1FCA5677
:10507000D24FC501B4010E94DE5F79836883C80105
:105080000E94764F20E030E04AEA52E4C501B401C4
:105090000E94625F18160CF41BC188E094E00E9425
:1050A000F05D86E40E94E11280938C0B882351F01E
:1050B0000E94A0126093390270933A0280933B02DF
:1050C00090933C0283E50E94E112882351F00E94F4
:1050D000A01260933D0270933E0280933F02909332
:1050E000400282E40E94E112882351F00E94A01243
:1050F0006093410270934202809343029093440272
:105100000091070410E0F801EE0FFF1FEA56F24F7E
:1051100060817181072E000C880B990B0E9416602C
:105120004B015C01000F111F000F111FF801E45823
:10513000F24F20813181428153810E94625F881F3A
:105140008827881FF1100CC069F020E030E04AEA9F
:1051500052E4C501B4010E94625F87FDBEC002C077
:105160008111BBC010922104412C512C3201812CA1
:10517000912C5401CAE00E94CB0B6B017C01DC0135
:10518000CB0184199509A609B709B7FD4EC02601C0
:10519000370188EE480E83E0581E611C711C0E9486
:1051A000CE17E3EBF5E08491882341F09091C000A5
:1051B00095FFFCCF8093C6003196F5CF8114910402
:1051C000A104B104F9F0D501C4018059984EAF4F44
:1051D000BF4FBC01CD016C197D098E099F0928EED6
:1051E00033E040E050E00E946963BA01A9012AE07F
:1051F00030E08EE096E00E947F308091C00085FF15
:10520000FCCF11C0E1EBF5E08491882341F090914F
:10521000C00095FFFCCF8093C6003196F5CF8091FA
:10522000C00085FFFCCFC093C6000E94BD270E942E
:10523000E10F0091070410E0F801EE0FFF1FEA569E
:10524000F24F60817181072E000C880B990B0E9430
:105250001660000F111F000F111FF801E458F24FE4
:1052600020813181428153810E946C5E9F7781143D
:105270009104A104B10469F420E030E040E85FE368
:105280000E94625F87FF0DC00E94CB0B4B015C0147
:1052900008C020E030E040E450E40E948461181629
:1052A0009CF380912104811118C081149104A10400
:1052B000B10409F460CF80E7C81A87E1D80AE10891
:1052C000F108C818D908EA08FB08F7FC54CF05C054
:1052D00088E094E00E94395EE4CEDF91CF911F9187
:1052E0000F91FF90EF90DF90CF90BF90AF909F9085
:1052F0008F907F906F905F904F9008954F925F9244
:105300006F927F928F929F92AF92BF92CF92DF92D5
:10531000EF92FF921F93CF93DF9300D01F92CDB7F0
:10532000DEB780910D0683FDE3C083E50E94E112A4
:10533000F82E8111D4C082E50E94E1128111CFC004
:105340006091940D7091950D2091760D3091770DAF
:105350004091780D5091790DFF2091F0072E000CAF
:10536000880B990B29833A834B835C830E941660D8
:1053700029813A814B815C810E94625F87FDB8C0C0
:1053800010922104412C512C3201812C912C54017A
:105390001AE00E94CB0B6B017C01DC01CB0184196C
:1053A0009509A609B709B7FD4EC02601370188EE59
:1053B000480E83E0581E611C711C0E94CE17EDEA56
:1053C000F5E08491882341F09091C00095FFFCCFD7
:1053D0008093C6003196F5CF81149104A104B104E5
:1053E000F9F0D501C401805F984DAF4FBF4FBC01AC
:1053F000CD016C197D098E099F0928EE33E040E04C
:1054000050E00E946963BA01A9012AE030E08EE011
:1054100096E00E947F308091C00085FFFCCF11C0D4
:10542000EBEAF5E08491882341F09091C00095FF6C
:10543000FCCF8093C6003196F5CF8091C00085FFE8
:10544000FCCF1093C6000E94BD270E94E10F60911F
:10545000940D7091950D072E000C880B990B0E94EE
:1054600016609B01AC016091760D7091770D809173
:10547000780D9091790D0E946C5E9F778114910454
:10548000A104B10469F420E030E040E85FE30E9449
:10549000625F87FF0DC00E94CB0B4B015C0108C00F
:1054A00020E030E040E450E40E94846118169CF350
:1054B0008091210481111CC081149104A104B104C4
:1054C00009F467CF80E1C81A87E2D80AE108F10839
:1054D000C818D908EA08FB08F7FC5BCF09C00E948E
:1054E000A0120E94DE5F7093950D6093940D28CFFB
:1054F0000F900F900F900F90DF91CF911F91FF9021
:10550000EF90DF90CF90BF90AF909F908F907F9063
:105510006F905F904F900895CF92DF92EF92FF923D
:105520000F931F93CF93DF9380E50E94E1128823AE
:1055300009F44FC00E94A0126B017C0183E50E9418
:10554000E112882331F00E94A0120E94DE5FEB017D
:1055500002C0CFEFDFEFCE0101960397D0F5C70170
:10556000B6010E94DE5F162F262F372FEAEFF2E0FA
:10557000819191918217930761F183E0E033F807FD
:10558000B9F737FD26C00E94E64A012F60E0812F5F
:105590000E94A50DCF3F8FEFD80729F0219771F416
:1055A000C1E0D0E00DC0812F0E94110E31E020E05B
:1055B000892B09F030E0C32FD22F02C0C0E0D0E029
:1055C000802F0E94110E8C179D0719F00E94BD2795
:1055D000F7CFDF91CF911F910F91FF90EF90DF9068
:1055E000CF90089567707727E82FF0E0EE57FD4FD2
:1055F000E4918E2F90E0FC013797EC30F10588F5AF
:105600008827EA56FF4F8F4F0C94AA638091B10010
:10561000887F8093B1008091B100682B6093B100C6
:10562000089580919100887F8093910080919100EE
:10563000682B6093910008958091A100887F8093EA
:10564000A1008091A100682B6093A1000895809132
:105650002101887F8093210180912101682B609333
:1056600021010895CF92DF92EF92FF9220914A0498
:10567000222331F16B017C0120E030E0A9010E947E
:10568000625F8823E9F020E030E040E05FE3C7019B
:10569000B6010E946B626B017C012BED3FE049E497
:1056A00050E40E946B62A70196010E946B629B010D
:1056B000AC0160E070E080E89FE30E946C5F04C092
:1056C00060E070E080E89FE3FF90EF90DF90CF9084
:1056D000089560912C0270912D0280912E0290917C
:1056E0002F020E94322B609328027093290280932C
:1056F0002A0290932B020895CF92DF92EF92FF92AD
:105700000F931F93CF93DF932091D5053091D6054A
:1057100040E6429FC001439F900D11248F5A9B4F3A
:105720009093DA058093D90580910D0680FF22C001
:10573000EDE0F9E08491882341F09091C00095FF5D
:10574000FCCF8093C6003196F5CFE091D905F0915A
:10575000DA058191882339F09091C00095FFFCCF44
:105760008093C600F6CF8091C00085FFFCCF8AE011
:105770008093C6002091D9053091DA05F901808126
:105780002F5F3F4F8032D1F3F093DA05E093D905D4
:105790008E3461F0C091D905D091DA056AE270E0EB
:1057A000CE010E94D3660097D1F420C0818190ED94
:1057B000980F9A3010F08D3269F73296DF013196EA
:1057C0002C9120532A30D0F3CD01FC010196208189
:1057D0002032D9F3F093DA05E093D905DBCFFC0151
:1057E00031968291803229F08A3219F0DE019D9142
:1057F00002C01082F6CFFD01808111968032D9F36C
:1058000080538A3018F00E94331521C320E030E025
:105810006AE0629FA001639F500D11249A012053FA
:1058200031098191280F311D808180538A3088F39E
:10583000DF0131968C918032D9F3B093D805A093D3
:10584000D70581E0809302049D34F1F1943509F489
:10585000F2C2973409F0F3C22430310561F120F42B
:105860002230310500F515C02A35310539F138F4FB
:105870002C31310509F0E5C20E94FB1AE2C22B353A
:105880003105F9F02C35310509F0DBC20E94111603
:10589000D8C280913802882309F4D3C20E94C91467
:1058A0000E94D721CEC281E02230310509F080E08C
:1058B0000E946425C6C20E94C427C3C2109222045B
:1058C000C0C280932204BDC22337310509F4BDC193
:1058D00008F079C02435310509F49BC1F0F52C346A
:1058E000310509F404C1D8F42F31310509F4F9C0A8
:1058F00048F42131310509F4F1C02231310509F4B0
:1059000088C19FC22A32310509F4EEC02B3431051B
:1059100009F097C288E094E00E94395E92C2213576
:10592000310509F460C168F42D34310509F4E4C08F
:105930002035310509F085C2269A2E98809A889ADA
:1059400080C22235310509F461C12335310509F0E2
:1059500078C281E08093500475C22B36310509F47A
:1059600033C1C8F42836310509F4CBC058F42535C5
:10597000310509F451C12C35310509F062C20E948C
:1059800085195FC22936310509F4E8C02A36310588
:1059900009F4F4C056C22F36310509F4C6C048F4E4
:1059A0002D36310509F4E7C02E36310509F4ACC0B7
:1059B00048C22137310509F4BBC008F054C181EC5D
:1059C00095E00E94B7252C3D310509F4D1C108F0BE
:1059D0003FC0283C310509F450C1D0F429373105C6
:1059E00009F444C150F42737310509F443C128377D
:1059F000310509F026C281E03AC12C38310509F49D
:105A00009AC02E3B310509F01CC20E947E2919C2A2
:105A10002C3C310509F4A6C180F4293C310509F478
:105A200073C12B3C310509F00CC20DED1BE0C0E346
:105A3000D3E0FC2E84E0F80E88C12D3C310509F43A
:105A400094C12E3C310509F0FCC10E94E61CF9C14D
:105A5000203981E0380709F4CDC1E8F42D32F1E0B6
:105A60003F0709F4B0C158F42D3D310509F48FC149
:105A7000223E310509F0E5C10E948C2AE2C12E3296
:105A8000E1E03E0709F4A2C12F32314009F0D9C14B
:105A90000E94441ED6C1253F81E0380709F4B0C1F9
:105AA00060F42A39F1E03F0709F4A7C12C3A3140EC
:105AB00009F0C7C10E94911EC4C1273FE1E03E0723
:105AC00009F4A5C108F4A0C1273E334009F0B9C1CB
:105AD00081E0809338020E942B20B3C10E94A82548
